{
  "contractName": "AdvancedStorage",
  "abi": [
    {
      "inputs": [
        {
          "internalType": "uint256",
          "name": "",
          "type": "uint256"
        }
      ],
      "name": "ids",
      "outputs": [
        {
          "internalType": "uint256",
          "name": "",
          "type": "uint256"
        }
      ],
      "stateMutability": "view",
      "type": "function"
    },
    {
      "inputs": [
        {
          "internalType": "uint256",
          "name": "id",
          "type": "uint256"
        }
      ],
      "name": "add",
      "outputs": [],
      "stateMutability": "nonpayable",
      "type": "function"
    },
    {
      "inputs": [
        {
          "internalType": "uint256",
          "name": "i",
          "type": "uint256"
        }
      ],
      "name": "get",
      "outputs": [
        {
          "internalType": "uint256",
          "name": "",
          "type": "uint256"
        }
      ],
      "stateMutability": "view",
      "type": "function"
    },
    {
      "inputs": [],
      "name": "getAll",
      "outputs": [
        {
          "internalType": "uint256[]",
          "name": "",
          "type": "uint256[]"
        }
      ],
      "stateMutability": "view",
      "type": "function"
    },
    {
      "inputs": [],
      "name": "length",
      "outputs": [
        {
          "internalType": "uint256",
          "name": "",
          "type": "uint256"
        }
      ],
      "stateMutability": "view",
      "type": "function"
    }
  ],
  "bytecode": "0x608060405234801561001057600080fd5b506103c6806100206000396000f3fe608060405234801561001057600080fd5b50600436106100575760003560e01c80631003e2d21461005c5780631f7b6d321461007857806353ed5143146100965780639507d39a146100b4578063fac333ac146100e4575b600080fd5b61007660048036038101906100719190610204565b610114565b005b610080610140565b60405161008d91906102e7565b60405180910390f35b61009e61014c565b6040516100ab91906102c5565b60405180910390f35b6100ce60048036038101906100c99190610204565b6101a4565b6040516100db91906102e7565b60405180910390f35b6100fe60048036038101906100f99190610204565b6101cb565b60405161010b91906102e7565b60405180910390f35b600081908060018154018082558091505060019003906000526020600020016000909190919091505550565b60008080549050905090565b6060600080548060200260200160405190810160405280929190818152602001828054801561019a57602002820191906000526020600020905b815481526020019060010190808311610186575b5050505050905090565b60008082815481106101b9576101b8610345565b5b90600052602060002001549050919050565b600081815481106101db57600080fd5b906000526020600020016000915090505481565b6000813590506101fe81610379565b92915050565b60006020828403121561021a57610219610374565b5b6000610228848285016101ef565b91505092915050565b600061023d83836102a7565b60208301905092915050565b600061025482610312565b61025e818561032a565b935061026983610302565b8060005b8381101561029a5781516102818882610231565b975061028c8361031d565b92505060018101905061026d565b5085935050505092915050565b6102b08161033b565b82525050565b6102bf8161033b565b82525050565b600060208201905081810360008301526102df8184610249565b905092915050565b60006020820190506102fc60008301846102b6565b92915050565b6000819050602082019050919050565b600081519050919050565b6000602082019050919050565b600082825260208201905092915050565b6000819050919050565b7f4e487b7100000000000000000000000000000000000000000000000000000000600052603260045260246000fd5b600080fd5b6103828161033b565b811461038d57600080fd5b5056fea264697066735822122053410d1497bbbce490223b94adce13d0c1bfb3a9a4604d394eb624bb34e0b5cb64736f6c63430008060033",
  "immutableReferences": {},
  "source": "//SPDX-License-Identifier: MIT\npragma solidity 0.8.6;\n\ncontract AdvancedStorage {\n    uint[] public ids;\n\n    function add(uint id) public {\n        ids.push(id);\n    }\n\n    function get(uint i) view public returns(uint) {\n        return ids[i];\n    }\n    \n    function getAll() view public returns (uint[] memory) {\n        return ids;\n    }\n\n    function length() view public returns (uint) {\n        return ids.length;\n    }\n}\n\n",
  "sourcePath": "/Users/josephdeangeloi/Documents/Testing/Simple-Smart-Contract/contracts/AdvancedStorage.sol",
  "compiler": {
    "name": "solc",
    "version": "0.8.6+commit.11564f7e.Emscripten.clang"
  },
  "schemaVersion": "3.4.10",
  "updatedAt": "2022-11-05T21:00:19.200Z",
  "devdoc": {
    "kind": "dev",
    "methods": {},
    "version": 1
  },
  "userdoc": {
    "kind": "user",
    "methods": {},
    "version": 1
  }
}