{
  "contractName": "Crud",
  "abi": [
    {
      "inputs": [],
      "name": "nextId",
      "outputs": [
        {
          "internalType": "uint256",
          "name": "",
          "type": "uint256"
        }
      ],
      "stateMutability": "view",
      "type": "function"
    },
    {
      "inputs": [
        {
          "internalType": "uint256",
          "name": "",
          "type": "uint256"
        }
      ],
      "name": "users",
      "outputs": [
        {
          "internalType": "uint256",
          "name": "id",
          "type": "uint256"
        },
        {
          "internalType": "string",
          "name": "name",
          "type": "string"
        }
      ],
      "stateMutability": "view",
      "type": "function"
    },
    {
      "inputs": [
        {
          "internalType": "string",
          "name": "name",
          "type": "string"
        }
      ],
      "name": "create",
      "outputs": [],
      "stateMutability": "nonpayable",
      "type": "function"
    },
    {
      "inputs": [
        {
          "internalType": "uint256",
          "name": "id",
          "type": "uint256"
        }
      ],
      "name": "read",
      "outputs": [
        {
          "internalType": "uint256",
          "name": "",
          "type": "uint256"
        },
        {
          "internalType": "string",
          "name": "",
          "type": "string"
        }
      ],
      "stateMutability": "view",
      "type": "function"
    },
    {
      "inputs": [
        {
          "internalType": "uint256",
          "name": "id",
          "type": "uint256"
        },
        {
          "internalType": "string",
          "name": "name",
          "type": "string"
        }
      ],
      "name": "update",
      "outputs": [],
      "stateMutability": "nonpayable",
      "type": "function"
    },
    {
      "inputs": [
        {
          "internalType": "uint256",
          "name": "id",
          "type": "uint256"
        }
      ],
      "name": "destroy",
      "outputs": [],
      "stateMutability": "nonpayable",
      "type": "function"
    }
  ],
  "bytecode": "0x60806040526001805534801561001457600080fd5b50610a6c806100246000396000f3fe608060405234801561001057600080fd5b50600436106100625760003560e01c8063365b98b21461006757806361b8ce8c146100985780639d118770146100b6578063b6a46b3b146100d2578063ed2e5a97146100ee578063f745630f1461011f575b600080fd5b610081600480360381019061007c919061064c565b61013b565b60405161008f92919061077b565b60405180910390f35b6100a06101f7565b6040516100ad9190610760565b60405180910390f35b6100d060048036038101906100cb919061064c565b6101fd565b005b6100ec60048036038101906100e79190610603565b61024b565b005b6101086004803603810190610103919061064c565b6102d1565b60405161011692919061077b565b60405180910390f35b61013960048036038101906101349190610679565b6103c3565b005b6000818154811061014b57600080fd5b906000526020600020906002020160009150905080600001549080600101805461017490610869565b80601f01602080910402602001604051908101604052809291908181526020018280546101a090610869565b80156101ed5780601f106101c2576101008083540402835291602001916101ed565b820191906000526020600020905b8154815290600101906020018083116101d057829003601f168201915b5050505050905082565b60015481565b60006102088261040f565b90506000818154811061021e5761021d610973565b5b9060005260206000209060020201600080820160009055600182016000610245919061049b565b50505050565b6000604051806040016040528060015481526020018381525090806001815401808255809150506001900390600052602060002090600202016000909190919091506000820151816000015560208201518160010190805190602001906102b39291906104db565b505050600160008154809291906102c9906108cc565b919050555050565b6000606060006102e08461040f565b9050600081815481106102f6576102f5610973565b5b9060005260206000209060020201600001546000828154811061031c5761031b610973565b5b906000526020600020906002020160010180805461033990610869565b80601f016020809104026020016040519081016040528092919081815260200182805461036590610869565b80156103b25780601f10610387576101008083540402835291602001916103b2565b820191906000526020600020905b81548152906001019060200180831161039557829003601f168201915b505050505090509250925050915091565b60006103ce8361040f565b905081600082815481106103e5576103e4610973565b5b906000526020600020906002020160010190805190602001906104099291906104db565b50505050565b6000806000905060008054905081101561049457826000828154811061043857610437610973565b5b90600052602060002090600202016000015414156104595780915050610496565b6040517f08c379a000000000000000000000000000000000000000000000000000000000815260040161048b90610740565b60405180910390fd5b505b919050565b5080546104a790610869565b6000825580601f106104b957506104d8565b601f0160209004906000526020600020908101906104d79190610561565b5b50565b8280546104e790610869565b90600052602060002090601f0160209004810192826105095760008555610550565b82601f1061052257805160ff1916838001178555610550565b82800160010185558215610550579182015b8281111561054f578251825591602001919060010190610534565b5b50905061055d9190610561565b5090565b5b8082111561057a576000816000905550600101610562565b5090565b600061059161058c846107d0565b6107ab565b9050828152602081018484840111156105ad576105ac6109d6565b5b6105b8848285610827565b509392505050565b600082601f8301126105d5576105d46109d1565b5b81356105e584826020860161057e565b91505092915050565b6000813590506105fd81610a1f565b92915050565b600060208284031215610619576106186109e0565b5b600082013567ffffffffffffffff811115610637576106366109db565b5b610643848285016105c0565b91505092915050565b600060208284031215610662576106616109e0565b5b6000610670848285016105ee565b91505092915050565b600080604083850312156106905761068f6109e0565b5b600061069e858286016105ee565b925050602083013567ffffffffffffffff8111156106bf576106be6109db565b5b6106cb858286016105c0565b9150509250929050565b60006106e082610801565b6106ea818561080c565b93506106fa818560208601610836565b610703816109e5565b840191505092915050565b600061071b60148361080c565b9150610726826109f6565b602082019050919050565b61073a8161081d565b82525050565b600060208201905081810360008301526107598161070e565b9050919050565b60006020820190506107756000830184610731565b92915050565b60006040820190506107906000830185610731565b81810360208301526107a281846106d5565b90509392505050565b60006107b56107c6565b90506107c1828261089b565b919050565b6000604051905090565b600067ffffffffffffffff8211156107eb576107ea6109a2565b5b6107f4826109e5565b9050602081019050919050565b600081519050919050565b600082825260208201905092915050565b6000819050919050565b82818337600083830152505050565b60005b83811015610854578082015181840152602081019050610839565b83811115610863576000848401525b50505050565b6000600282049050600182168061088157607f821691505b6020821081141561089557610894610944565b5b50919050565b6108a4826109e5565b810181811067ffffffffffffffff821117156108c3576108c26109a2565b5b80604052505050565b60006108d78261081d565b91507fffffffffffffffffffffffffffffffffffffffffffffffffffffffffffffffff82141561090a57610909610915565b5b600182019050919050565b7f4e487b7100000000000000000000000000000000000000000000000000000000600052601160045260246000fd5b7f4e487b7100000000000000000000000000000000000000000000000000000000600052602260045260246000fd5b7f4e487b7100000000000000000000000000000000000000000000000000000000600052603260045260246000fd5b7f4e487b7100000000000000000000000000000000000000000000000000000000600052604160045260246000fd5b600080fd5b600080fd5b600080fd5b600080fd5b6000601f19601f8301169050919050565b7f5573657220646f6573206e6f7420657869737421000000000000000000000000600082015250565b610a288161081d565b8114610a3357600080fd5b5056fea264697066735822122017d67518fcdb982000c2cdf8199fb70fc734bba61c2bfd6b5d8b66754339e07564736f6c63430008060033",
  "immutableReferences": {},
  "source": "//SPDX-License-Identifier: MIT\npragma solidity 0.8.6;\n\ncontract Crud {\n\n    struct User {\n        uint id;\n        string name;\n    }\n\n    User[] public users;\n    uint public nextId = 1;\n\n    function create(string memory name) public {\n        users.push(User(nextId, name));\n        nextId++;\n    }\n\n    function read(uint id) view public returns (uint, string memory) {\n        uint i = find(id);\n        return(users[i].id, users[i].name);\n    }\n\n    function update(uint id, string memory name) public {\n        uint i = find(id);\n        users[i].name = name;\n    }\n    function destroy(uint id) public {\n        uint i = find(id);\n        delete users[i];\n    }\n    function find(uint id) view internal returns (uint) {\n        for(uint i = 0; i < users.length; i++) {\n            if(users[i].id == id) {\n                return i;\n            }\n            revert('User does not exist!');\n        }\n    }\n}",
  "sourcePath": "/Users/josephdeangeloi/Documents/Testing/Simple-Smart-Contract/contracts/Crud.sol",
  "compiler": {
    "name": "solc",
    "version": "0.8.6+commit.11564f7e.Emscripten.clang"
  },
  "schemaVersion": "3.4.10",
  "updatedAt": "2022-11-06T21:45:48.553Z",
  "devdoc": {
    "kind": "dev",
    "methods": {},
    "version": 1
  },
  "userdoc": {
    "kind": "user",
    "methods": {},
    "version": 1
  }
}